{
  "contractName": "Ballot",
  "abi": [
    {
      "inputs": [],
      "payable": false,
      "stateMutability": "nonpayable",
      "type": "constructor"
    },
    {
      "constant": true,
      "inputs": [],
      "name": "chairperson",
      "outputs": [
        {
          "internalType": "address",
          "name": "",
          "type": "address"
        }
      ],
      "payable": false,
      "stateMutability": "view",
      "type": "function"
    },
    {
      "constant": true,
      "inputs": [
        {
          "internalType": "uint256",
          "name": "",
          "type": "uint256"
        }
      ],
      "name": "proposals",
      "outputs": [
        {
          "internalType": "uint256",
          "name": "",
          "type": "uint256"
        }
      ],
      "payable": false,
      "stateMutability": "view",
      "type": "function"
    },
    {
      "constant": true,
      "inputs": [
        {
          "internalType": "address",
          "name": "",
          "type": "address"
        }
      ],
      "name": "voters",
      "outputs": [
        {
          "internalType": "uint256",
          "name": "weight",
          "type": "uint256"
        },
        {
          "internalType": "bool",
          "name": "voted",
          "type": "bool"
        },
        {
          "internalType": "uint8",
          "name": "vote",
          "type": "uint8"
        }
      ],
      "payable": false,
      "stateMutability": "view",
      "type": "function"
    },
    {
      "constant": false,
      "inputs": [
        {
          "internalType": "address",
          "name": "toVoter",
          "type": "address"
        }
      ],
      "name": "register",
      "outputs": [],
      "payable": false,
      "stateMutability": "nonpayable",
      "type": "function"
    },
    {
      "constant": false,
      "inputs": [
        {
          "internalType": "uint8",
          "name": "toProposal",
          "type": "uint8"
        }
      ],
      "name": "vote",
      "outputs": [],
      "payable": false,
      "stateMutability": "nonpayable",
      "type": "function"
    },
    {
      "constant": true,
      "inputs": [],
      "name": "winningProposal",
      "outputs": [
        {
          "internalType": "uint8",
          "name": "_winningProposal",
          "type": "uint8"
        }
      ],
      "payable": false,
      "stateMutability": "view",
      "type": "function"
    }
  ],
  "bytecode": "0x608060405234801561001057600080fd5b50336000806101000a81548173ffffffffffffffffffffffffffffffffffffffff021916908373ffffffffffffffffffffffffffffffffffffffff1602179055506002600160008060009054906101000a900473ffffffffffffffffffffffffffffffffffffffff1673ffffffffffffffffffffffffffffffffffffffff1673ffffffffffffffffffffffffffffffffffffffff16815260200190815260200160002060000181905550610539806100c96000396000f3fe608060405234801561001057600080fd5b50600436106100625760003560e01c8063013cf08b146100675780632e4176cf146100a95780634420e486146100f3578063609ff1bd14610137578063a3ec138d1461015b578063b3f98adc146101cb575b600080fd5b6100936004803603602081101561007d57600080fd5b81019080803590602001909291905050506101fc565b6040518082815260200191505060405180910390f35b6100b1610214565b604051808273ffffffffffffffffffffffffffffffffffffffff1673ffffffffffffffffffffffffffffffffffffffff16815260200191505060405180910390f35b6101356004803603602081101561010957600080fd5b81019080803573ffffffffffffffffffffffffffffffffffffffff169060200190929190505050610239565b005b61013f610386565b604051808260ff1660ff16815260200191505060405180910390f35b61019d6004803603602081101561017157600080fd5b81019080803573ffffffffffffffffffffffffffffffffffffffff1690602001909291905050506103e2565b60405180848152602001831515151581526020018260ff1660ff168152602001935050505060405180910390f35b6101fa600480360360208110156101e157600080fd5b81019080803560ff169060200190929190505050610426565b005b6002816004811061020957fe5b016000915090505481565b6000809054906101000a900473ffffffffffffffffffffffffffffffffffffffff1681565b6000809054906101000a900473ffffffffffffffffffffffffffffffffffffffff1673ffffffffffffffffffffffffffffffffffffffff163373ffffffffffffffffffffffffffffffffffffffff161461029257600080fd5b6000600160008373ffffffffffffffffffffffffffffffffffffffff1673ffffffffffffffffffffffffffffffffffffffff16815260200190815260200160002060000154146102e157600080fd5b60018060008373ffffffffffffffffffffffffffffffffffffffff1673ffffffffffffffffffffffffffffffffffffffff168152602001908152602001600020600001819055506000600160008373ffffffffffffffffffffffffffffffffffffffff1673ffffffffffffffffffffffffffffffffffffffff16815260200190815260200160002060010160006101000a81548160ff02191690831515021790555050565b6000806000905060008090505b60048160ff1610156103dd578160028260ff16600481106103b057fe5b015411156103d05760028160ff16600481106103c857fe5b015491508092505b8080600101915050610393565b505090565b60016020528060005260406000206000915090508060000154908060010160009054906101000a900460ff16908060010160019054906101000a900460ff16905083565b6000600160003373ffffffffffffffffffffffffffffffffffffffff1673ffffffffffffffffffffffffffffffffffffffff16815260200190815260200160002090508060010160009054906101000a900460ff168061048a575060048260ff1610155b80610499575060008160000154145b156104a357600080fd5b60018160010160006101000a81548160ff021916908315150217905550818160010160016101000a81548160ff021916908360ff160217905550806000015460028360ff16600481106104f257fe5b0160008282540192505081905550505056fea265627a7a7231582032ad9835da6a9585dac0a0a1c9f6d3a87b2e9f26af39a29651e0b9d4bf64ea3564736f6c63430005100032",
  "source": "pragma solidity ^0.5.9;\n\ncontract Ballot {\n\n    struct Voter {\n        uint weight;\n        bool voted;\n        uint8 vote;\n        // address delegate;\n    }\n\n    //modifer\n    modifier onlyOwner () {\n      require(msg.sender == chairperson);\n      _;\n    }\n\n    /* struct Proposal {\n        uint voteCount; // could add other data about proposal\n    } */\n    address public chairperson;\n    mapping(address => Voter) public voters;\n    uint[4] public proposals;\n\n    // Create a new ballot with 4 different proposals.\n    constructor() public {\n        chairperson = msg.sender;\n        voters[chairperson].weight = 2;\n    }\n\n    /// Give $(toVoter) the right to vote on this ballot.\n    /// May only be called by $(chairperson).\n    function register(address toVoter) public onlyOwner{\n        if(voters[toVoter].weight != 0) revert();\n        voters[toVoter].weight = 1;\n        voters[toVoter].voted = false;\n    }\n\n    /// Give a single vote to proposal $(toProposal).\n    function vote(uint8 toProposal) public {\n        Voter storage sender = voters[msg.sender];\n        if (sender.voted || toProposal >= 4 || sender.weight == 0) revert();\n        sender.voted = true;\n        sender.vote = toProposal;\n        proposals[toProposal] += sender.weight;\n    }\n\n    function winningProposal() public view returns (uint8 _winningProposal) {\n        uint256 winningVoteCount = 0;\n        for (uint8 prop = 0; prop < 4; prop++)\n            if (proposals[prop] > winningVoteCount) {\n                winningVoteCount = proposals[prop];\n                _winningProposal = prop;\n            }\n    }\n}",
  "sourcePath": "/Users/student/blockchain/d_app/ballot1/contracts/Ballot.sol",
  "compiler": {
    "name": "solc",
    "version": "0.5.16+commit.9c3226ce.Emscripten.clang"
  },
  "schemaVersion": "3.3.3",
  "updatedAt": "2021-02-05T19:13:19.398Z",
  "networkType": "ethereum",
  "devdoc": {
    "methods": {}
  },
  "userdoc": {
    "methods": {
      "register(address)": {
        "notice": "Give $(toVoter) the right to vote on this ballot. May only be called by $(chairperson)."
      },
      "vote(uint8)": {
        "notice": "Give a single vote to proposal $(toProposal)."
      }
    }
  }
}